:100000000C945D000C9485000C9485000C94850084
:100010000C9485000C9485000C9485000C9485004C
:100020000C9485000C9485000C9485000C9485003C
:100030000C9485000C9485000C9485000C9485002C
:100040000C9429040C9485000C9499040C9473046A
:100050000C9485000C9485000C9485000C9485000C
:100060000C9485000C9485000000000024002700FB
:100070002A0000000000250028002B0004040404CE
:100080000404040402020202020203030303030342
:10009000010204081020408001020408102001021F
:1000A00004081020000000080002010000030407FB
:1000B0000000000000000000CB0411241FBECFEFA1
:1000C000D8E0DEBFCDBF11E0A0E0B1E0E2E0F3E1B7
:1000D00002C005900D92A435B107D9F722E0A4E53E
:1000E000B1E001C01D92A231B207E1F710E0CDE509
:1000F000D0E004C02197FE010E947909CC35D107D8
:10010000C9F70E9415050C947F090C94000090E03B
:10011000FC01EC55FF4F2491FC01E057FF4F349157
:10012000FC01E458FF4FE491EE23C9F0222339F09B
:10013000233001F1A8F4213019F1223029F1F0E047
:10014000EE0FFF1FEE58FF4FA591B4918FB7F894B3
:10015000EC91611126C030953E233C938FBF0895EA
:100160002730A9F02830C9F0243049F78091800069
:100170008F7D03C0809180008F7780938000DFCFD8
:1001800084B58F7784BDDBCF84B58F7DFBCF809125
:10019000B0008F778093B000D2CF8091B0008F7D78
:1001A000F9CF3E2BDACFCF93DF9390E0FC01E057FD
:1001B000FF4F249184589F4FFC0184918823D1F0F4
:1001C00090E0880F991FFC01E859FF4FA591B49169
:1001D000FC01EE58FF4FC591D49161110EC09FB73D
:1001E000F8948C91E22FE0958E238C932881E22362
:1001F000E8839FBFDF91CF9108958FB7F894EC917A
:10020000E22BEC938FBFF6CFE82FF0E0EC55FF4FD9
:10021000E491E33029F150F4E130C1F0E230D9F05B
:1002200060387105BCF560E00C948700E73011F18F
:10023000E83041F1E430A1F7809180008062809342
:10024000800070938B0060938A00089584B5806865
:1002500084BD67BD089584B5806284BD68BD08957E
:100260008091800080688093800070938900609303
:10027000880008958091B00080688093B0006093FA
:10028000B30008958091B00080628093B0006093C5
:10029000B400089561E0C8CF3FB7F8948091590148
:1002A00090915A01A0915B01B0915C0126B5A89B89
:1002B00005C02F3F19F00196A11DB11D3FBFBA2FF8
:1002C000A92F982F8827BC01CD01620F711D811DB8
:1002D000911D42E0660F771F881F991F4A95D1F73D
:1002E0000895AF92BF92CF92DF92EF92FF920F9359
:1002F0001F93CF93DF936C017B018B01040F151FBC
:10030000EB015E01AE18BF08C017D10759F0699123
:10031000D601ED91FC910190F081E02DC601099587
:10032000892B79F7C501DF91CF911F910F91FF9034
:10033000EF90DF90CF90BF90AF900895FC01538D68
:10034000448D252F30E0842F90E0821B930B5417AF
:1003500010F0CF96089501970895FC01918D828D3C
:10036000981761F0A28DAE0FBF2FB11D5D968C91D5
:10037000928D9F5F9F73928F90E008958FEF9FEF14
:100380000895FC01918D828D981731F0828DE80FD0
:10039000F11D858D90E008958FEF9FEF0895FC018A
:1003A000918D228D892F90E0805C9F4F821B910957
:1003B0008F73992708958DE591E00E94CF0121E088
:1003C000892B09F420E0822F089580E090E0892BAA
:1003D00029F00E94DB0181110C9400000895FC01BA
:1003E000A48DA80FB92FB11DA35ABF4F2C91848D96
:1003F00090E001968F739927848FA689B7892C93F3
:10040000A089B1898C91837080648C93938D848D45
:10041000981306C00288F389E02D80818F7D808348
:100420000895EF92FF920F931F93CF93DF93EC0108
:1004300081E0888F9B8D8C8D98131AC0E889F9898B
:10044000808185FF15C09FB7F894EE89FF8960838E
:10045000E889F98980818370806480839FBF81E00F
:1004600090E0DF91CF911F910F91FF90EF90089551
:10047000F62E0B8D10E00F5F1F4F0F731127E02E2C
:100480008C8D8E110CC00FB607FCFACFE889F98964
:10049000808185FFF5CFCE010E94EF01F1CFEB8D7A
:1004A000EC0FFD2FF11DE35AFF4FF0829FB7F89438
:1004B0000B8FEA89FB8980818062CFCFCF93DF9356
:1004C000EC01888D8823B9F0AA89BB89E889F9896C
:1004D0008C9185FD03C0808186FD0DC00FB607FCA1
:1004E000F7CF8C9185FFF2CF808185FFEDCFCE01D4
:1004F0000E94EF01E9CFDF91CF910895089590E038
:1005000080E00895FC0101900020E9F73197AF01E8
:10051000481B590BBC018AEF91E00C9471018F923A
:100520009F92AF92BF920F931F93CF93DF93CDB75C
:10053000DEB7A1970FB6F894DEBF0FBECDBF19A2EC
:10054000423008F44AE08E010F5D1F4F842E912C3B
:10055000B12CA12CA50194010E945709E62FB901E5
:10056000CA01EA30F4F4E05DD801EE938D01232B4B
:10057000242B252B79F790E080E0109719F0CD011E
:100580000E948202A1960FB6F894DEBF0FBECDBFC7
:10059000DF91CF911F910F91BF90AF909F908F905F
:1005A0000895E95CE1CFCF93DF93EC0160E08E81A9
:1005B0000E94870061E08E810E94870060E08E814A
:1005C0000E9487008BE891E00197F1F7DF91CF91CE
:1005D0000895CF92DF92EF92FF920F931F93CF93E4
:1005E000DF936C017C0187E0E80EF11CD0E0C0E0F5
:1005F000062F10E0B8010C2E02C0759567950A947D
:10060000E2F76170F70181917F010E9487002196D6
:10061000C430D10579F7C601DF91CF911F910F91B9
:10062000FF90EF90DF90CF900C94D302CF92DF92A7
:10063000EF92FF920F931F93CF93DF93EC01F62E6F
:10064000642F8C810E9487008D818F3F19F060E0BC
:100650000E9487000F2D10E08F8584FF25C06E015A
:1006600087E0C80ED11CF12CE12CB8010E2C02C081
:10067000759567950A94E2F76170F60181916F01B3
:100680000E948700FFEFEF1AFF0A88E0E816F104E6
:1006900061F7CE01DF91CF911F910F91FF90EF9005
:1006A000DF90CF900C94D302B80184E075956795E4
:1006B0008A95E1F7CE010E94E9026F2DCE01DF910C
:1006C000CF911F910F91FF90EF90DF90CF900C94FE
:1006D000E90240E0682F8AEF91E00C941603CF9373
:1006E000DF93823029F49091090298609093090277
:1006F00080930D0210920E0280E480930F0280E13D
:100700008093100280E58093110261E08091FE01E8
:100710000E94D3008091FF018F3F19F061E00E9499
:10072000D30061E0809100020E94D300CAEFD1E0C3
:100730009E012A5F31408091090284FD0BC084E054
:1007400090E021962817390744F461E08E810E94D9
:10075000D300EECF88E090E0F4CF8BE39DE00197EB
:10076000F1F760E08091FE010E94870060E08091D7
:1007700000020E9487008091FF018F3F19F060E026
:100780000E9487008091090284FD39C063E08AEFEE
:1007900091E00E94E902CBE4D6E4CE010197F1F7A3
:1007A00063E08AEF91E00E94E9022197F1F763E0AC
:1007B0008AEF91E00E94E90283E592E00197F1F768
:1007C00062E08AEF91E00E94E90280910902806272
:1007D0000E94690384E080930A028CE00E9469030E
:1007E00081E00E9469038BE39FE10197F1F782E0CA
:1007F00080930B0286E0DF91CF910C9469038062B5
:100800000E9469038BE496E40197F1F78091090255
:1008100080620E94690383E592E00197F1F780917D
:10082000090280620E946903D0CF90910D0289175E
:1008300010F08FEF890FE82FF0E0E650FE4F84892B
:1008400080680C94690341E00E94160381E090E007
:1008500008951F920F920FB60F9211242F933F937A
:100860008F939F93AF93BF938091550190915601C1
:10087000A0915701B09158013091540123E0230F0A
:100880002D3758F50196A11DB11D20935401809379
:10089000550190935601A0935701B0935801809150
:1008A000590190915A01A0915B01B0915C010196B0
:1008B000A11DB11D8093590190935A01A0935B0132
:1008C000B0935C01BF91AF919F918F913F912F9118
:1008D0000F900FBE0F901F90189526E8230F0296D9
:1008E000A11DB11DD2CF1F920F920FB60F921124EE
:1008F0002F933F934F935F936F937F938F939F9328
:10090000AF93BF93EF93FF938DE591E00E94EF01CA
:10091000FF91EF91BF91AF919F918F917F916F91D7
:100920005F914F913F912F910F900FBE0F901F90AD
:1009300018951F920F920FB60F9211242F938F9339
:100940009F93EF93FF93E0916D01F0916E01808191
:10095000E0917301F091740182FD1BC09081809140
:1009600076018F5F8F7320917701821741F0E091BC
:100970007601F0E0E35AFE4F958F80937601FF9168
:10098000EF919F918F912F910F900FBE0F901F901D
:1009900018958081F4CFEDE5F1E01382128288EEA4
:1009A00093E0A0E0B0E084839583A683B78384E0DE
:1009B00091E09183808385EC90E09587848784EC37
:1009C00090E09787868780EC90E0918B808B81EC1C
:1009D00090E0938B828B82EC90E0958B848B86ECFD
:1009E00090E0978B868B118E128E138E148EEAEF09
:1009F000F1E01382128286E191E0918380838CE0A2
:100A000084838FEF85838BE0868385E0878384E012
:100A1000808783E0818782E082871386148615862B
:100A20001686178681E00C946F03789484B58260F3
:100A300084BD84B5816084BD85B5826085BD85B582
:100A4000816085BD80916E00816080936E00109200
:100A5000810080918100826080938100809181007B
:100A6000816080938100809180008160809380000C
:100A70008091B10084608093B1008091B00081606A
:100A80008093B00080917A00846080937A00809196
:100A90007A00826080937A0080917A0081608093EE
:100AA0007A0080917A00806880937A001092C10069
:100AB000E0916D01F0916E0182E08083E091690127
:100AC000F0916A011082E0916B01F0916C018FEC62
:100AD000808310927501E0917101F091720186E0BE
:100AE0008083E0916F01F09170018081806180834B
:100AF000E0916F01F0917001808188608083E091C6
:100B00006F01F0917001808180688083E0916F01B6
:100B1000F091700180818F7D808361E086E00E948A
:100B2000D30061E087E00E94D30061E088E00E948A
:100B3000D30061E089E00E94D30061E08AE00E9476
:100B4000D30060E08EE00E94D30061E08AE00E9462
:100B5000870082E00E946F0390E4392E0BE31FE1CF
:100B6000C0E0D0E030927C0080917A008064809375
:100B70007A0080917A0086FDFCCF609178007091B8
:100B80007900072E000C880B990B0E94300820E09A
:100B900030E04AEF53E40E94E50820E030EC4FE7F4
:100BA00054E40E948D076B017C0181E00E9469037F
:100BB000C8010197F1F780E00E9415048EE191E0F1
:100BC0000E948202A7019601C701B6010E94520944
:100BD000882309F45DC085E291E00E94820281E3EE
:100BE00091E00E94820220E030E048EF51E4C7012A
:100BF000B6010E94E00887FDDFC061E088E00E9446
:100C0000870060E087E00E94870060E086E00E9445
:100C1000870061E089E00E94D30061E089E00E94E2
:100C2000870081E00E94150484E391E00E94820223
:100C30000E944C016B017C0184EF882E99249394CF
:100C4000A12CB12C0E944C016C197D098E099F09C1
:100C5000683E734081059105A8F321E0821A91084E
:100C6000A108B10888EEC80E83E0D81EE11CF11C73
:100C700081149104A104B10429F7209709F472CFDB
:100C80000E94DB01882309F46DCF0E9400006ACF27
:100C900046015701E894B7F82FEF3FEF4FE75FE7C2
:100CA000C501B4010E94520981110DC02FEF3FEF21
:100CB0004FE75FE7C501B4010E94880718161CF4CE
:100CC00089E291E08ACF2FEF3FEF4FE75FE4C70162
:100CD000B6010E94E00818161CF48DE291E07DCF69
:100CE0002FEF3FEF4FE75FECC701B6010E94880787
:100CF00087FDF3CF20E030E0A901C701B6010E94D3
:100D0000880787FF56C041E06DE28AEF91E00E94BC
:100D10001603C701B60190582AE037ED43EA5BE3BA
:100D20000E941C072B013C010E94FF074B015C0144
:100D30000E942E089B01AC01C301B2010E941B0757
:100D40002B013C014AE0C501B4010E948F0241E041
:100D50006EE28AEF91E00E94160320E030E040E26C
:100D600051E4C301B2010E94E5082B013C010E943D
:100D7000FF074B01B12CA12C4AE0C501B4010E9430
:100D80008F02C501B4010E942E089B01AC01C30172
:100D9000B2010E941B0720E030E040E251E40E94D3
:100DA000E5080E94FF0790E080E04AE00E948F0281
:100DB00016CFC701B601B0CF20E030E040EE51E4DD
:100DC000C701B6010E94E00860E087FD1AC088E014
:100DD0000E94870061E087E00E94870060E086E073
:100DE0000E94870061E089E00E94D3006BE970E017
:100DF00089E00E94040181E00E9415048EE391E0E5
:100E000015CF88E00E94870060E087E00E9487009D
:100E100061E086E00E94870061E089E00E94D300E3
:100E20006BE470E089E00E94040181E00E941504F7
:100E30008AE491E0FBCE5058BB27AA270E943307D3
:100E40000C94A6080E94980838F00E949F0820F091
:100E500039F49F3F19F426F40C9495080EF4E095AC
:100E6000E7FB0C948F08E92F0E94B70858F3BA17D4
:100E7000620773078407950720F079F4A6F50C94B0
:100E8000D9080EF4E0950B2EBA2FA02D0B01B90155
:100E900090010C01CA01A0011124FF27591B99F0F0
:100EA000593F50F4503E68F11A16F040A22F232FFC
:100EB000342F4427585FF3CF469537952795A7954C
:100EC000F0405395C9F77EF41F16BA0B620B730BF3
:100ED000840BBAF09150A1F0FF0FBB1F661F771F64
:100EE000881FC2F70EC0BA0F621F731F841F48F419
:100EF000879577956795B795F7959E3F08F0B0CFA2
:100F00009395880F08F09927EE0F97958795089588
:100F10000E946B0808F481E008950E94A1070C94D8
:100F2000A6080E949F0858F00E94980840F029F4F3
:100F30005F3F29F00C948F0851110C94DA080C943F
:100F400095080E94B70868F39923B1F3552391F3EC
:100F5000951B550BBB27AA2762177307840738F028
:100F60009F5F5F4F220F331F441FAA1FA9F335D085
:100F70000E2E3AF0E0E832D091505040E695001C39
:100F8000CAF72BD0FE2F29D0660F771F881FBB1FF3
:100F9000261737074807AB07B0E809F0BB0B802DD1
:100FA000BF01FF2793585F4F3AF09E3F510578F0FD
:100FB0000C948F080C94DA085F3FE4F3983ED4F366
:100FC000869577956795B795F7959F5FC9F7880FD1
:100FD000911D9695879597F90895E1E0660F771F23
:100FE000881FBB1F621773078407BA0720F0621BB4
:100FF000730B840BBA0BEE1F88F7E09508950E94DF
:10100000BF0888F09F5798F0B92F9927B751B0F0D3
:10101000E1F0660F771F881F991F1AF0BA95C9F77C
:1010200014C0B13091F00E94D908B1E008950C9439
:10103000D908672F782F8827B85F39F0B93FCCF3EC
:10104000869577956795B395D9F73EF490958095F9
:10105000709561957F4F8F4F9F4F0895E89409C019
:1010600097FB3EF490958095709561957F4F8F4FDB
:101070009F4F9923A9F0F92F96E9BB279395F695F1
:10108000879577956795B795F111F8CFFAF4BB0F6F
:1010900011F460FF1BC06F5F7F4F8F4F9F4F16C0D3
:1010A000882311F096E911C0772321F09EE8872F5D
:1010B000762F05C0662371F096E8862F70E060E019
:1010C0002AF09A95660F771F881FDAF7880F969592
:1010D000879597F90895990F0008550FAA0BE0E836
:1010E000FEEF16161706E807F907C0F012161306EA
:1010F000E407F50798F0621B730B840B950B39F42A
:101100000A2661F0232B242B252B21F408950A268F
:1011100009F4A140A6958FEF811D811D089597F9CF
:101120009F6780E870E060E008959FEF80EC08958D
:1011300000240A94161617061806090608950024B6
:101140000A9412161306140605060895092E039430
:10115000000C11F4882352F0BB0F40F4BF2B11F4A4
:1011600060FF04C06F5F7F4F8F4F9F4F089557FD03
:101170009058440F551F59F05F3F71F04795880F05
:1011800097FB991F61F09F3F79F08795089512169C
:1011900013061406551FF2CF4695F1DF08C0161648
:1011A00017061806991FF1CF8695710561050894F9
:1011B0000895E894BB2766277727CB0197F9089510
:1011C0000E946B0808F48FEF08950E94F8080C94B1
:1011D000A6080E94980838F00E949F0820F09523E6
:1011E00011F00C948F080C94950811240C94DA08D3
:1011F0000E94B70870F3959FC1F3950F50E0551FFB
:10120000629FF001729FBB27F00DB11D639FAA275B
:10121000F00DB11DAA1F649F6627B00DA11D661FAA
:10122000829F2227B00DA11D621F739FB00DA11DCB
:10123000621F839FA00D611D221F749F3327A00D85
:10124000611D231F849F600D211D822F762F6A2F21
:1012500011249F5750409AF0F1F088234AF0EE0F86
:10126000FF1FBB1F661F771F881F91505040A9F7B3
:101270009E3F510580F00C948F080C94DA085F3F74
:10128000E4F3983ED4F3869577956795B795F795EF
:10129000E7959F5FC1F7FE2B880F911D9695879567
:1012A00097F908950E946B08880B990B0895A1E2A5
:1012B0001A2EAA1BBB1BFD010DC0AA1FBB1FEE1FD0
:1012C000FF1FA217B307E407F50720F0A21BB30B1B
:1012D000E40BF50B661F771F881F991F1A9469F797
:1012E00060957095809590959B01AC01BD01CF01F3
:1012F0000895EE0FFF1F0590F491E02D0994F894E6
:02130000FFCF1D
:1013020000000000110271019E015E02CF01AD01D9
:10131200C10100000000230471017F027E025465B6
:101322006D703A20006E616E00696E66006F7666BF
:101332000020430046616E3A2048696768004661B2
:101342006E3A204D656469756D0046616E3A204CB7
:041352006F770000B1
:00000001FF
